{
  "contractName": "LiftEthers",
  "abi": [
    {
      "inputs": [],
      "stateMutability": "nonpayable",
      "type": "constructor"
    },
    {
      "stateMutability": "payable",
      "type": "fallback"
    },
    {
      "stateMutability": "payable",
      "type": "receive"
    },
    {
      "inputs": [
        {
          "internalType": "string",
          "name": "_name",
          "type": "string"
        },
        {
          "internalType": "string",
          "name": "_massage",
          "type": "string"
        }
      ],
      "name": "giveTip",
      "outputs": [],
      "stateMutability": "payable",
      "type": "function"
    },
    {
      "inputs": [],
      "name": "allTips",
      "outputs": [
        {
          "components": [
            {
              "internalType": "address",
              "name": "from",
              "type": "address"
            },
            {
              "internalType": "uint256",
              "name": "time",
              "type": "uint256"
            },
            {
              "internalType": "uint256",
              "name": "amount",
              "type": "uint256"
            },
            {
              "internalType": "string",
              "name": "name",
              "type": "string"
            },
            {
              "internalType": "string",
              "name": "massage",
              "type": "string"
            }
          ],
          "internalType": "struct LiftEthers.Tip[]",
          "name": "",
          "type": "tuple[]"
        }
      ],
      "stateMutability": "view",
      "type": "function"
    }
  ],
  "bytecode": "0x608060405234801561001057600080fd5b5033600160006101000a81548173ffffffffffffffffffffffffffffffffffffffff021916908373ffffffffffffffffffffffffffffffffffffffff160217905550610f09806100616000396000f3fe60806040526004361061002d5760003560e01c8063ace60082146102e6578063d1c1f267146103025761018c565b3661018c5760006040518060a001604052803373ffffffffffffffffffffffffffffffffffffffff1681526020014281526020013481526020016040518060400160405280600781526020017f756e6b6e6f776e0000000000000000000000000000000000000000000000000081525081526020016040518060400160405280600a81526020017f6e6f206d61737361676500000000000000000000000000000000000000000000815250815250908060018154018082558091505060019003906000526020600020906005020160009091909190915060008201518160000160006101000a81548173ffffffffffffffffffffffffffffffffffffffff021916908373ffffffffffffffffffffffffffffffffffffffff160217905550602082015181600101556040820151816002015560608201518160030190816101749190610950565b50608082015181600401908161018a9190610950565b005b60006040518060a001604052803373ffffffffffffffffffffffffffffffffffffffff1681526020014281526020013481526020016040518060400160405280600781526020017f756e6b6e6f776e0000000000000000000000000000000000000000000000000081525081526020016040518060400160405280600a81526020017f6e6f206d61737361676500000000000000000000000000000000000000000000815250815250908060018154018082558091505060019003906000526020600020906005020160009091909190915060008201518160000160006101000a81548173ffffffffffffffffffffffffffffffffffffffff021916908373ffffffffffffffffffffffffffffffffffffffff160217905550602082015181600101556040820151816002015560608201518160030190816102ce9190610950565b5060808201518160040190816102e49190610950565b005b61030060048036038101906102fb9190610b4d565b61032d565b005b34801561030e57600080fd5b50610317610513565b6040516103249190610dc8565b60405180910390f35b602082511115610372576040517f08c379a000000000000000000000000000000000000000000000000000000000815260040161036990610e47565b60405180910390fd5b600034116103b5576040517f08c379a00000000000000000000000000000000000000000000000000000000081526004016103ac90610eb3565b60405180910390fd5b60006040518060a001604052803373ffffffffffffffffffffffffffffffffffffffff16815260200142815260200134815260200184815260200183815250908060018154018082558091505060019003906000526020600020906005020160009091909190915060008201518160000160006101000a81548173ffffffffffffffffffffffffffffffffffffffff021916908373ffffffffffffffffffffffffffffffffffffffff1602179055506020820151816001015560408201518160020155606082015181600301908161048d9190610950565b5060808201518160040190816104a39190610950565b505050600160009054906101000a900473ffffffffffffffffffffffffffffffffffffffff1673ffffffffffffffffffffffffffffffffffffffff166108fc349081150290604051600060405180830381858888f1935050505015801561050e573d6000803e3d6000fd5b505050565b60606000805480602002602001604051908101604052809291908181526020016000905b828210156106f757838290600052602060002090600502016040518060a00160405290816000820160009054906101000a900473ffffffffffffffffffffffffffffffffffffffff1673ffffffffffffffffffffffffffffffffffffffff1673ffffffffffffffffffffffffffffffffffffffff16815260200160018201548152602001600282015481526020016003820180546105d490610769565b80601f016020809104026020016040519081016040528092919081815260200182805461060090610769565b801561064d5780601f106106225761010080835404028352916020019161064d565b820191906000526020600020905b81548152906001019060200180831161063057829003601f168201915b5050505050815260200160048201805461066690610769565b80601f016020809104026020016040519081016040528092919081815260200182805461069290610769565b80156106df5780601f106106b4576101008083540402835291602001916106df565b820191906000526020600020905b8154815290600101906020018083116106c257829003601f168201915b50505050508152505081526020019060010190610537565b50505050905090565b600081519050919050565b7f4e487b7100000000000000000000000000000000000000000000000000000000600052604160045260246000fd5b7f4e487b7100000000000000000000000000000000000000000000000000000000600052602260045260246000fd5b6000600282049050600182168061078157607f821691505b6020821081036107945761079361073a565b5b50919050565b60008190508160005260206000209050919050565b60006020601f8301049050919050565b600082821b905092915050565b6000600883026107fc7fffffffffffffffffffffffffffffffffffffffffffffffffffffffffffffffff826107bf565b61080686836107bf565b95508019841693508086168417925050509392505050565b6000819050919050565b6000819050919050565b600061084d6108486108438461081e565b610828565b61081e565b9050919050565b6000819050919050565b61086783610832565b61087b61087382610854565b8484546107cc565b825550505050565b600090565b610890610883565b61089b81848461085e565b505050565b5b818110156108bf576108b4600082610888565b6001810190506108a1565b5050565b601f821115610904576108d58161079a565b6108de846107af565b810160208510156108ed578190505b6109016108f9856107af565b8301826108a0565b50505b505050565b600082821c905092915050565b600061092760001984600802610909565b1980831691505092915050565b60006109408383610916565b9150826002028217905092915050565b61095982610700565b67ffffffffffffffff8111156109725761097161070b565b5b61097c8254610769565b6109878282856108c3565b600060209050601f8311600181146109ba57600084156109a8578287015190505b6109b28582610934565b865550610a1a565b601f1984166109c88661079a565b60005b828110156109f0578489015182556001820191506020850194506020810190506109cb565b86831015610a0d5784890151610a09601f891682610916565b8355505b6001600288020188555050505b505050505050565b6000604051905090565b600080fd5b600080fd5b600080fd5b600080fd5b6000601f19601f8301169050919050565b610a5a82610a40565b810181811067ffffffffffffffff82111715610a7957610a7861070b565b5b80604052505050565b6000610a8c610a22565b9050610a988282610a51565b919050565b600067ffffffffffffffff821115610ab857610ab761070b565b5b610ac182610a40565b9050602081019050919050565b82818337600083830152505050565b6000610af0610aeb84610a9d565b610a82565b905082815260208101848484011115610b0c57610b0b610a3b565b5b610b17848285610ace565b509392505050565b600082601f830112610b3457610b33610a36565b5b8135610b44848260208601610add565b91505092915050565b60008060408385031215610b6457610b63610a2c565b5b600083013567ffffffffffffffff811115610b8257610b81610a31565b5b610b8e85828601610b1f565b925050602083013567ffffffffffffffff811115610baf57610bae610a31565b5b610bbb85828601610b1f565b9150509250929050565b600081519050919050565b600082825260208201905092915050565b6000819050602082019050919050565b600073ffffffffffffffffffffffffffffffffffffffff82169050919050565b6000610c1c82610bf1565b9050919050565b610c2c81610c11565b82525050565b610c3b8161081e565b82525050565b600082825260208201905092915050565b60005b83811015610c70578082015181840152602081019050610c55565b60008484015250505050565b6000610c8782610700565b610c918185610c41565b9350610ca1818560208601610c52565b610caa81610a40565b840191505092915050565b600060a083016000830151610ccd6000860182610c23565b506020830151610ce06020860182610c32565b506040830151610cf36040860182610c32565b5060608301518482036060860152610d0b8282610c7c565b91505060808301518482036080860152610d258282610c7c565b9150508091505092915050565b6000610d3e8383610cb5565b905092915050565b6000602082019050919050565b6000610d5e82610bc5565b610d688185610bd0565b935083602082028501610d7a85610be1565b8060005b85811015610db65784840389528151610d978582610d32565b9450610da283610d46565b925060208a01995050600181019050610d7e565b50829750879550505050505092915050565b60006020820190508181036000830152610de28184610d53565b905092915050565b600082825260208201905092915050565b7f6e616d65206c656e677468206d757374206265206c657373207468616e203332600082015250565b6000610e31602083610dea565b9150610e3c82610dfb565b602082019050919050565b60006020820190508181036000830152610e6081610e24565b9050919050565b7f76616c7565206d7573742062652067726561746572207468616e203000000000600082015250565b6000610e9d601c83610dea565b9150610ea882610e67565b602082019050919050565b60006020820190508181036000830152610ecc81610e90565b905091905056fea2646970667358221220c1ba56cce7319dab33b1193e7e4a9855938278cd3f9b92d5cba7ed2afd762df764736f6c63430008120033",
  "immutableReferences": {},
  "source": "// SPDX-License-Identifier: MIT\npragma solidity >=0.6 <0.9.0;\n\ncontract LiftEthers {\n    struct Tip {\n        address from;\n        uint time;\n        uint amount;\n        string name;\n        string massage;\n    }\n    Tip[] tips;\n    address payable developer;\n\n    constructor() {\n        developer = payable(msg.sender);\n    }\n\n    receive() external payable {\n        tips.push(\n            Tip(msg.sender, block.timestamp, msg.value, \"unknown\", \"no massage\")\n        );\n    }\n\n    fallback() external payable {\n        tips.push(\n            Tip(msg.sender, block.timestamp, msg.value, \"unknown\", \"no massage\")\n        );\n    }\n\n    function giveTip(\n        string memory _name,\n        string memory _massage\n    ) public payable {\n        require(bytes(_name).length <= 32, \"name length must be less than 32\");\n        require(msg.value > 0, \"value must be greater than 0\");\n        tips.push(Tip(msg.sender, block.timestamp, msg.value, _name, _massage));\n        developer.transfer(msg.value);\n    }\n\n    modifier onlyDeveloper() {\n        require(msg.sender == developer, \"only developer can call this\");\n        _;\n    }\n\n    function allTips() public view returns (Tip[] memory) {\n        return tips;\n    }\n}\n",
  "sourcePath": "/Users/aamir/Documents/vs codes/blockchain development/dapps/web3 js/LiftEthers/contracts/LiftEthers.sol",
  "compiler": {
    "name": "solc",
    "version": "0.8.18+commit.87f61d96.Emscripten.clang"
  },
  "schemaVersion": "3.4.12",
  "updatedAt": "2023-09-25T05:16:18.006Z",
  "devdoc": {
    "kind": "dev",
    "methods": {},
    "version": 1
  },
  "userdoc": {
    "kind": "user",
    "methods": {},
    "version": 1
  }
}